:1000000000800020BD010000692C0000692C000068
:10001000692C0000692C0000692C0000352C0000C0
:10002000352C0000352C0000352C0000692C000018
:10003000692C0000352C0000692C0000252C0000E4
:10004000692C0000692C0000692C0000692C00005C
:10005000692C0000692C0000692C0000692C00004C
:10006000692C0000692C0000692C0000692C00003C
:10007000692C0000692C0000692C0000692C00002C
:10008000692C0000692C0000692C0000692C00001C
:10009000692C0000692C0000692C0000692C00000C
:1000A000692C0000692C0000692C0000692C0000FC
:1000B000692C0000692C0000692C0000692C0000EC
:1000C000692C0000692C0000692C0000692C0000DC
:1000D000692C0000692C0000692C0000692C0000CC
:1000E000692C0000692C0000692C0000692C0000BC
:1000F000692C0000BD390000692C0000353D00006E
:10010000692C0000F93F0000692C0000692C0000F8
:10011000692C0000692C0000692C0000692C00008B
:10012000692C0000692C0000692C0000692C00007B
:10013000692C0000692C0000692C0000692C00006B
:10014000692C0000692C0000692C0000692C00005B
:10015000555000006D500000855000009D5000007B
:10016000692C0000B9420000692C0000692C0000D5
:10017000692C0000692C0000692C0000692C00002B
:10018000692C0000692C0000692C0000692C00001B
:10019000692C0000692C0000692C0000412E000031
:1001A000912E0000192F0000D52F000059300000BB
:1001B000692C0000692C0000594E00004E4B4CF297
:1001C000205210B51A804DF628121A8000BF00BFC9
:1001D00002F04DFD494B4FF010621A60484A9A6098
:1001E000484ADA60484B1A6812F4807204D14749D1
:1001F0000A604FF4A8521A60454B1A7802F00802C0
:10020000D2B21AB11A7842F008021A700023414A99
:100210004148424C02E019599950043399188142DF
:10022000F9D33F4B3F4A002101E043F8041B9342BE
:10023000FBD33D4B00221A603C4B3D4A802103F822
:10024000011B9342FBD13B4B0A221A703A4B2422EA
:100250001A70A02203F8012C384A137803F0020325
:10026000DBB2002BF9D0354A137803F01003DBB270
:10027000002BF9D1314A137803F00C03082BFAD183
:100280002F4B03221A7040225A702C4A137803F025
:100290002003DBB2002BF9D0284A137803F0400387
:1002A000DBB2002BF9D0274A274B1A60274B2022BC
:1002B0001A70224A137803F00C030C2BFAD1244B4A
:1002C00002221A60234A43F8442C234B234A1A6023
:1002D000072243F8042C62B603F037F90B4B1B6876
:1002E000DC0702D51E4802F0D5FE07F077FF02F0CA
:1002F000C5FC05F0CEFDFEE70E2005403080044031
:10030000823F04000100002B10D0034014D00340B2
:1003100002D007400084FF1F5C8AFF1F500C0100C1
:100320005C8AFF1F7494FF1F08ED00E000E400E00A
:100330005FE400E0005006400140064006400640F1
:100340000440064000000301448004400040064091
:1003500048800440C010050014E000E0FF76010072
:1003600000DD6850FFFFFFFFFFFFFFFFFFFFFFFF04
:10037000FFFFFFFFFFFFFFFFFFFFFFFFFFFFFFFF8D
:10038000FFFFFFFFFFFFFFFFFFFFFFFFFFFFFFFF7D
:10039000FFFFFFFFFFFFFFFFFFFFFFFFFFFFFFFF6D
:1003A000FFFFFFFFFFFFFFFFFFFFFFFFFFFFFFFF5D
:1003B000FFFFFFFFFFFFFFFFFFFFFFFFFFFFFFFF4D
:1003C000FFFFFFFFFFFFFFFFFFFFFFFFFFFFFFFF3D
:1003D000FFFFFFFFFFFFFFFFFFFFFFFFFFFFFFFF2D
:1003E000FFFFFFFFFFFFFFFFFFFFFFFFFFFFFFFF1D
:1003F000FFFFFFFFFFFFFFFFFFFFFFFFFFFFFFFF0D
:10040000FFFFFFFFFFFFFFFFFFFFFFFFFEFFFFFFFD
:1004100008B548F65C20074BC1F6FF701B1A062B87
:1004200000D808BD40F20003C0F20003002BF8D052
:100430009847F6E75F8AFF1F08B548F65C2048F644
:100440005C23C1F6FF70C1F6FF731B1A9B1003EB10
:10045000D373591000D108BD40F20002C0F200026F
:10046000002AF8D09047F6E710B548F65C24C1F6AC
:10047000FF74237873B9FFF7CBFF40F20003C0F29B
:1004800000032BB140F65040C0F20100AFF30080F2
:100490000123237010BD00BF08B540F20003C0F275
:1004A00000034BB140F6504048F66021C0F2010015
:1004B000C1F6FF71AFF3008048F65C20C1F6FF7013
:1004C00003682BB140F20003C0F2000303B1984768
:1004D000BDE80840FFF7B0BF2DE9F3476C4890E84E
:1004E0008400002102EB57074FF0A00C08304FF0BA
:1004F000030846E0143D9342A4F5C874EDB208D356
:10050000994600244FF448611DE00B46A0254FF4A6
:100510004864DE19B6FBF2F902FB196608FB06F621
:1005200000EB060985556FF05F06761B89F80160C0
:100530005E1A664396FBFCF60133B4F5C87F89F872
:100540000260D7D1DCE79342C9EB030A18D2DD1968
:10055000B5FBF2F602FB165508FB05F546194455A6
:100560000AFB01FA6FF05F052D1B9AFBFCFA1434AD
:100570000133B1F5C871757086F802A0E4B2E2D11A
:1005800019469142C1D31D21531EB3FBF1F3013330
:100590003F4E4B430021756803278C465CE00124E5
:1005A0004819B0FBF3F803FB1808481C99426CD2B9
:1005B000904513D207FB086191F8088048FA04F8C7
:1005C00081F8088091F8098048FA04F881F80980D8
:1005D00091F80A8048FA04F881F80A800134082C5E
:1005E0000146DDD100F10A084119B1FBF3F403FB28
:1005F0001411441C984248D2914207D207FB016172
:1006000081F808C081F809C081F80AC04445204635
:10061000EAD107206119B1FBF3F803FB1818611C3C
:100620009C4232D2904513D207FB086494F80880AC
:1006300048FA00F884F8088094F8098048FA00F82D
:1006400084F8098094F80A8048FA00F884F80A804F
:1006500001380C46DED105319942A0D30C4B5A68C3
:10066000F92A01D100225A600A4B0021187864232C
:100670000093FF220B4604F03AFF074B014618682F
:1006800002B0BDE8F04705F0A6BC02B0BDE8F087B7
:10069000788AFF1F0484FF1FA80601002DE9F04F90
:1006A000334B1A6803274FF00C0CB2FBF7F7B2FB81
:1006B000FCFC8BB05A68002503F1080645E01C6875
:1006C0000492CCEB0400A9184118B1FBF4F004FB30
:1006D0001011C819B0FBF4FB04FB1B0B4FF003080F
:1006E00000204FF0C80A4FF0FF098DF81C0008FBEE
:1006F000016107A80393CDF814C08DF81DA08DF8F3
:100700001E9005F01CFD50218DF8201008A808FB54
:100710000B618DF821A0BB448DF8229005F00FFDF0
:10072000A0218DF82410BBFBF4F104FB11B109A842
:1007300008FB01618DF825A08DF8269005F0FFFCDF
:10074000DDF814C0039B049A0135BD42B7DB094BA9
:1007500018788223009300210523FF2204F0C7FEAE
:10076000054B0146186805F036FC0BB0BDE8F08F6C
:10077000788AFF1F0484FF1FA80601002DE9F043BB
:10078000204D85B0002405F1080626E06A684FF088
:100790000309FF2309FB04F8A218B2FBF3F106EBEF
:1007A000080703FB112203A839468DF80C208DF8A9
:1007B0000D308DF80E3005F0C2FC2B6816F80820BD
:1007C000013B1B1B09FB03F906EB090306F8092093
:1007D0007A785A70BA7801349A702B68B4EB530F58
:1007E000D4D3094B0021187832230093FF220B4603
:1007F00004F07DFE054B0146186805F0ECFB05B0E2
:10080000BDE8F083788AFF1F0484FF1FA80601005B
:10081000F0B51F4B597885B063298CBFFF21C821E3
:10082000002004F05AFE642104460A2004F055FE1C
:1008300021460546002004F050FE092826DCA023AE
:10084000144E8DF80C3032238DF80E408DF80D309B
:10085000002406F1080706E0032101FB047103A848
:1008600005F06DFC013433689C42F5D3084B1878D1
:10087000AB0000930423002195FBF3F3FF2204F067
:1008800036FE054B0146186805F0A5FB05B0F0BD26
:100890000484FF1F788AFF1FA80601007FB500208F
:1008A000642104F01AFE5A2802DC26494B6853B929
:1008B0005F238DF80830FF238DF809308DF80A305A
:1008C00002A821490AE05F238DF80C30FF238DF840
:1008D0000D3000238DF80E3003A80831194C05F0B7
:1008E0002EFC2568032604F5127004F1080106FBAE
:1008F00005F207F085FF04F10B03012204F51274E1
:100900000CE0501E70432118205C03F8030C48785B
:10091000897803F8020C03F8011C01320333AA4260
:10092000EFD30A4B18784FF49673009300210523F8
:10093000FF2204F0DCFD064B0146186805F04BFB76
:100940007FBD00BF788AFF1F808AFF1F0484FF1FBE
:10095000A806010003783BB143FA01F111F0FF0151
:1009600008BF0121591A017070472DE9F347514B17
:10097000514D1878002137230093FF220B4604F0D5
:10098000B6FD2B6803F1FF381423B8FBF3F808F128
:10099000010803FB08F80026C4B205F1080A84E048
:1009A00069680A39B1FBF4F356FA83F2B2FBF8F046
:1009B00008FB10202A68904276D2B20763D1052244
:1009C00004FB1313B108B1FBF2F702FB1717013355
:1009D000DBB2013F03211AB28F4203D8DFE807F0F0
:1009E00012233440C82201FB005013FB02F292FB99
:1009F000F4F21BB20272DA0002EB430393FBF4F34E
:100A000043723EE0D10001EB4202032101FB0050A2
:100A1000C82113FB01F392FBF4F293FBF4F302728F
:100A20004372827240E0C82201FB005013FB02F2C5
:100A300092FBF4F21BB20272DA00DB019B1A93FB09
:100A4000F4F3437200231CE0D10001EB42020321C6
:100A500001FB005092FBF4F202724272C8220CE0D9
:100A6000C82201FB005013FB02F292FBF4F2027267
:100A70009A0192FBF4F24272912213FB02F393FB70
:100A8000F4F3837210E0032707FB00A948463946B8
:100A9000FFF760FF09F101003946FFF75BFF09F13D
:100AA00002003946FFF756FF013646457FF478AF1E
:100AB000BDE8FC870484FF1F788AFF1F70B50446D9
:100AC00018460E46154604F0FDFCC0B230B9237836
:100AD000AB4201D35D1B08E0207070BD012807D137
:100AE0002378721B934202DCED18257070BD2670CE
:100AF00070BD2DE9F3472F4F002407F10806D7F802
:100B000004A02546B0462CE002224FF0030940F62F
:100B100072339A4594BF13460123DC2109FB05601B
:100B2000FFF7CCFF325D386805213319920092FB44
:100B3000F1F25A70315D41FA09F29A706A1C8242F0
:100B40000DD214F808005B7809FB02F908EB0902E2
:100B500080109B08491108F8090053709170023504
:100B600006343B68DFF84C909D42CDD3D9F8042081
:100B70000623B2FBF3F103FB11232BB947F23050EC
:100B800004F0A0FCC9F89C04D9F89C0404F06CFCA7
:100B9000094B0021187832230093FF220B4604F002
:100BA000A6FC064B0146186802B0BDE8F04705F008
:100BB00012BA00BF788AFF1F0484FF1FA806010035
:100BC0000378FF2B10B5044601D1FE230CE0DA07B1
:100BD00002D55B00013307E03BB10421FFF7BAFE09
:100BE0002378D90701D5013B237010BD70B51D4690
:100BF00003781F2B064614460DD1481C04F062FCF6
:100C000070B908E023780BB9012323701DB12B784C
:100C10000BB901232B703046BDE87040FFF7D0BF01
:100C2000002CEFD1F2E7654B5B682DE9F74FC82246
:100C3000B3FBF2F102FB1132822A08D840F21229EA
:100C40004B4594BF4FF000094FF0010901E04FF010
:100C500001095B48DFF864A1C31C09210022FFF7EA
:100C6000C5FF58480921C31C0022FFF7BFFF5648A3
:100C70000921C31C0022FFF7B9FF0AF1080701236D
:100C80004FF003081BE003F1010B5D1E08FB037628
:100C900008FB057508FB0B74304609212A462346DC
:100CA000FFF7A4FF701C09216A1C631CFFF79EFF5D
:100CB000A31CB01C0921AA1CFFF798FF5B46DAF8B9
:100CC00000203E4E501E834206F108044FF00305FB
:100CD000D9D3023A05FB0040092105FB024200235B
:100CE000FFF784FF3368581E023B05FB034205FBF8
:100CF00000400130092101320023FFF777FF3368FC
:100D0000581E023B05FB034205FB0040023009214F
:100D100002320023FFF76AFFB9F1000F35D13068C6
:100D200004F0D0FB0446072004F0CCFB06282CD8A6
:100D3000DFE800F024241C1C0C0C0400032303FB3C
:100D40000466B37A0BBB0123B3721EE003235C433A
:100D50003619337ACBB9737ABBB9B37AABB91849C0
:100D60000A1901230B55537093700EE0032303FB04
:100D70000466737A4BB90123737206E0032303FB05
:100D80000466337A0BB9012333720C4B5A6840F274
:100D900075218A4201D100225A600C4B002118783B
:100DA00046230093FF220B4604F0A1FB084B0146AB
:100DB000186803B0BDE8F04F05F00DB9788AFF1F41
:100DC000808AFF1F818AFF1F828AFF1F0484FF1F02
:100DD000A80601002DE9F84F334E81468A46174692
:100DE000002406F108084FF0030B0BE00BFB048511
:100DF0002846FFF7E5FE681CFFF7E2FEA81CFFF798
:100E0000DFFE013433689C42F0D3002F4AD1DFF873
:100E100098800427032508F10804D8F8000004F09E
:100E200051FB05FB008306461A7A002A38D15A7A0C
:100E3000B2BB9B7AA3BB504604F044FB48446E43CC
:100E4000062828D8DFE800F02704090E141A20002D
:100E50000122A255A319002214E00022A319A255D1
:100E6000012115E0A3190022A2555A70012210E0B9
:100E7000A3190122A2555A7000220AE00022A255AD
:100E8000A31901225A7004E00122A255A3190021DE
:100E900059709A7004E0A2190123A35553709370FE
:100EA000013FBAD1BDE8F88F788AFF1F1C4B5B6801
:100EB000B3F5C87F07B502D20020012105E040F25A
:100EC0008922934203D80020022102460DE001202E
:100ED000B3F5617F02D20221002206E040F24C42CB
:100EE0000621934294BF00220122FFF773FF0C4BAF
:100EF0005A68B2F5966F01D300225A60094B00215F
:100F0000187864230093FF220B4604F0F0FA064B96
:100F10000146186803B05DF804EB05F05CB800BF4B
:100F2000788AFF1F0484FF1FA8060100BD4A2DE92F
:100F3000F84F53680BB982F8B83492F8B804B94B3B
:100F40000324B0FBF4F504FB150212F0FF0255D1A7
:100F5000FF21A54213D8DFE805F00205090D19723B
:100F60005A7201E01A7259729A7217E01A725A7222
:100F7000FF22F9E7CC225A7219721F22F4E7FF20F0
:100F800004F0A0FA0546FF2004F09CFA0446FF2076
:100F900004F098FAA34B1D725C729872A14BFF2269
:100FA0009A73DA731A74DA721A735A731A4603212F
:100FB00052F8080B1E7A451E4D43541956555D7A5A
:100FC000DE7A65709D7AA570851E4D43541956557D
:100FD0001D7B0338657041435D7B987BA570505441
:100FE0005418DA7B62701A7CA27093F8B82401322C
:100FF00083F8B8240822C3F8BC240FE1012A40F08A
:10100000B580D3F8BC941D6809F1010209FB02F810
:101010004FEA9818C3F8BC246A1CB8EB520F30D3BF
:1010200000220833FF219AE0032606FB045A5046AB
:101030000521FFF78FFC0AF101000521FFF78AFC6B
:101040000AF102000521FFF785FC3B68013B181BF4
:1010500006FB00500521FFF77DFC3B68581E001B76
:1010600006FB005001300521FFF774FC3B68013B93
:101070001B1B06FB035002300521FFF76BFC0134FC
:1010800005E0002408F1FF3B1F4603F108055C451D
:10109000CAD3644B53F8082B02F1010C08EB591525
:1010A0004FEA5C0C02F1FF3941460320FF262AE09B
:1010B000614506D300FB01F41A191E55567096704F
:1010C00010E001F1FF3800FB08F800FB01F703EB2B
:1010D000080413F80880DA1903F807806778A47801
:1010E0005770947000FB01F8C1EB0907474303EB0D
:1010F000080413F80880DA1903F807806778A478E1
:10110000577094700131A9424FF00304464ACFD979
:101110006F1CA81C67436043D6191118FF234B703E
:101120008B707370B37052F8086C1354751BD355E1
:10113000AF1E6743D619D355033D6C43105C7370E3
:10114000B370105513194A785A708A789A7065E00E
:1011500004FB02F7DE19D9557170B1700132AA4251
:10116000F6D1304B013083F8B80457E01C7A002CDC
:101170004AD15A7A002A4AD1997A002946D10130B7
:10118000C0B2B0F10F0183F8B80448424841BDE84D
:10119000F88F254897F8B83405FB0406B3FBF8F33D
:1011A0003046032B23D8DFE803F00208121C03218A
:1011B000FFF7D0FB701C042104E00421FFF7CAFBF9
:1011C000701C0321FFF7C6FBB01C022118E00421AC
:1011D000FFF7C0FB701C0421FFF7BCFBB01C032110
:1011E0000EE00321FFF7B6FB701C022104E004218E
:1011F000FFF7B0FB701C0421FFF7ACFBB01C04210F
:10120000FFF7A8FB013406E0002400E014464FF08D
:101210000308044F45463B689C42BAD30020BDE812
:10122000F88F00BF788AFF1F808AFF1F07B5FFF77E
:101230007DFE10B1094B00225A60094B002118783D
:101240001E230093FF220B4604F051F9054B014683
:10125000186803B05DF804EB04F0BDBE788AFF1F88
:101260000484FF1FA8060100064B1B68590888422A
:1012700000EB010201D210467047B2FBF3F003FB12
:1012800010207047788AFF1F2DE9F0431E4D6C68CF
:1012900055F8083BB4FBF3F803FB184885B040460B
:1012A000FFF7E2FF0326B4FBF6F706FB0851FF2425
:1012B00081468DF8087002A8A0378DF809408DF896
:1012C0000A4004F03CFF97FBF4F304FB137706FBA2
:1012D000095103A88DF80C708DF80D408DF80E4063
:1012E00004F02DFF094B1D68094B00211878782365
:1012F000009322460B4604F0FAF80146284604F013
:101300006AFE05B0BDE8F083788AFF1FA8060100D9
:101310000484FF1F0028DCBF014B186801387047A8
:10132000788AFF1F2DE9FF412E4D2A684FF00308F0
:1013300005F1080108FB02F205F5127007F060FAEA
:10134000FF21002004F0C9F82C46FF238DF80C0083
:1013500005F1080103A88DF80D308DF80E30012736
:1013600004F0EDFE05F5127554F80B6B0FE03846EE
:10137000FFF7D0FF08FB00F02B182A5C04F8032CC1
:101380005A789B7804F8022C04F8013C01370334A6
:10139000B742ECD313494A68B24218D8124B1878B6
:1013A000C823009300210A23FF2204F0A0F80F4B6A
:1013B0000146186804F00FFE11E0B342EED007FBBF
:1013C00003F408190A5542708270013304E00023C7
:1013D000951B083103271A46AB42EED3DEE7BDE882
:1013E000FF8100BF788AFF1F0484FF1FA806010049
:1013F00048B1054B1B68B0EB530F03D1DB0702D597
:1014000001307047181A7047788AFF1F1F4B73B559
:10141000002583F8CC045D601E46E8B201F0DEF9D9
:10142000D6F89C34194C0135C018082DC6F89C0418
:10143000F3D104F019F800214FF4107204F1080000
:1014400007F0FEFA4FF41072002104F5127007F055
:10145000F7FA0F4B186800F095F90E490E4800F0A6
:1014600057F90D4894F8CC1400F05FF90B4B94F841
:10147000CC241B680193019BC4F8D034D4F8D83431
:1014800003EBC2035B68C4F8D4347CBD788AFF1FC9
:10149000A8060100080401000C93FF1F2090FF1F05
:1014A000034BC3F8D804002083F8DC14FFF7AEBF69
:1014B000788AFF1F0D4B30B193F8CC1493F8DC24DD
:1014C0000131C9B206E093F8DC2493F8CC1451182A
:1014D0000139C9B2B1FBF2F002FB101283F8CC243F
:1014E000024B93F8CC04FFF791BF00BF788AFF1F2F
:1014F00001481A21FFF7D4BF08030100F8B53D49A0
:101500003D483E4E00F004F93B4803F0AFFE002496
:10151000E0B201F063F9D6F89C34384D0134C018BC
:10152000082CC6F89C04F3D100213548354C04F052
:10153000D5FCD5F89C34C018C5F89C0403F094FF82
:101540004FF4807003F0BEFF0021C2B22C4804F0BB
:10155000C8FC32232B60236813F001060DD120460E
:1015600001F0A7FB48B1284D284600F0EBF8274BC7
:101570002E8420462B6001F09EFB204C224804F173
:10158000080532222946002304F0B5FC236803270E
:101590005B0807FB0353C4F888341D4B1E68802387
:1015A00033700920012101F031FE002324681A461E
:1015B00006E007FB03F029182A544A708A700133A9
:1015C000A342F6D10D4B8021002283F86C10FF213D
:1015D00083F86B2083F86D2083F86E1083F86F20FA
:1015E00083F87020304600F0CDF8642001F098FFB9
:1015F000F8E700BF0B0401000C93FF1F788AFF1F60
:101600001C93FF1F688FFF1F6C8FFF1FE0020100FC
:10161000A806010008B500F0DFFC00F01FFD08BDC2
:101620002DE9F74F074689460026DFF8948040E011
:101630000321FF2301FB04A168468DF800708DF89B
:1016400001308DF8025004F07AFD0134D8F80030F2
:101650009C42EDD3194BD3F800A0504600F092F80D
:10166000033540F201139D4202D1FF251CE03225D3
:101670000024DFF850A0E9E70321FF2301FB04B1B8
:1016800001A88DF804708DF805308DF8065004F02F
:1016900056FD0134D8F800309C42EDD35046033D4E
:1016A00000F070F8302D03D00024DFF818B0F1E717
:1016B00001364E45DBDBBDE8FE8F00BFA80601000A
:1016C000788AFF1F808AFF1F13B503681C680023F8
:1016D0000A468DF800308DF801308DF802308DF813
:1016E00004308DF805308DF80630694601ABA0470F
:1016F0001CBDFFFF10B501210446092001F086FD45
:101700000823A361014BE36110BD00BF80F00F40CF
:1017100038B5044608460D4601F0ECFA2368024647
:101720005B6820462946984738BD38B50A22002311
:10173000044603F0C7FD0546204603F097FD281830
:1017400038BDFFFF0C4B0360FF23037343738373A8
:10175000C3730374437401238374084B00224260F3
:10176000426182601A6802B91860054A136803B1C1
:1017700098601060704700BFF80201002093FF1FBF
:101780002893FF1F017804F0CBBB002330B5016024
:101790000271C3800AE0C48811F8015C0134641945
:1017A00011F8025C0133641BC480DBB20231934246
:1017B000F1D130BDF0B503684E0013F811300B497C
:1017C00003270CE007FB03F592F800C04C1901F861
:1017D00005C05578657095780133A570DBB2046853
:1017E000A41964789C42EDD2F0BD00BF808AFF1F2F
:1017F0000368074803EB410213F811105278521A9C
:101800000323013203FB01005A43002107F018B9FA
:10181000808AFF1F124B10B504461868FFF7B2FF0D
:1018200022792368002A0CBF4FF0FF3101215B1899
:10183000642B236000D013B982F001022271227B55
:10184000A368002A0CBF4FF0FF3101215B18A36091
:101850000BB1C82B02D182F00102227310BD00BF70
:10186000A8060100FFFFFFFFF7B5434C236813F004
:10187000010506460CD1204601F01BFA40B13F4B52
:101880003F4A5D711A60204607221A7101F013FA6F
:101890003A4B59791A68555C1A79013191FBF2F08B
:1018A00002FB1012FF2D5A711C4605D1232003F0B4
:1018B00009FEC0F1FF00C5B2637923B9FF2003F030
:1018C00001FE304B1870304C2046032350F80B7B40
:1018D0007F085F43033F04F108013A4607F04AF8E6
:1018E000D4F888143A46C81C07F044F8254B8DF804
:1018F00006501B7804F108018DF8043001A8FF237D
:101900008DF8053004F01BFCD4F88834227A1A7064
:10191000627A5A70A27A30469A70FFF77BFF62684B
:101920009623B2FBF3F103FB1120400006F020F8F0
:101930000DA3D3E9002306F091F80DA3D3E900230A
:1019400006F0B6F904F058FD0022104B06F086F8B8
:1019500000220F4B05F0D0FE06F042FB0D4B014676
:10196000186804F038FBFEBD182D4454FB210940D3
:101970000000000000C06240588FFF1F5C8FFF1FF7
:10198000D0020100648FFF1F788AFF1F00003440DF
:1019900000004E40A806010008B50248FFF764FFAA
:1019A00008BD00BF048FFF1F2DE9F04FDFF8309115
:1019B000D9F804401E4696239246B4FBF3F28046C3
:1019C00003FB124085B040008B4605F0D1FF3AA3DF
:1019D000D3E9002306F042F839A3D3E9002306F047
:1019E00067F9C4F307170D46044604F005FD4FF0F0
:1019F000FF0C0022344B8DF809C0CDF804C08DF8DF
:101A0000087006F02BF80022304B05F075FE06F04A
:101A1000E7FA2F4A2F4B8DF80A00BAF1000F08BFE2
:101A20001346204629469847BBF1000F14BF4FF0DC
:101A3000800B4FF0000BDDF804C0274B8DF80DC074
:101A40005F4400228DF80C7006F008F800221F4B4E
:101A500005F052FE06F0C4FA09F108074D468DF86C
:101A60000E000024B94617E00EB1630000E02346E3
:101A7000032102A801FB037104F061FB16B16300AE
:101A8000013302E02B6804EB5303032103A801FB9D
:101A9000039104F054FB01342B68B4EB530FE3D3F0
:101AA0004046FFF7B7FE0D4B0421186804F093FA87
:101AB00005B0BDE8F08F00BF182D4454FB2109404C
:101AC0000000000000C0624000804B400000694000
:101AD00065630000F963000000804BC0A8060100A8
:101AE000788AFF1FAFF30080012108B502480A463B
:101AF0000B46FFF759FF08BD048FFF1F012208B5F1
:101B0000024800211346FFF74FFF08BD048FFF1F57
:101B1000012108B5024800220B46FFF745FF08BD2A
:101B2000048FFF1F002108B502480A460123FFF772
:101B30003BFF08BD048FFF1F012108B502480A467C
:101B40000023FFF731FF08BD048FFF1F002108B5F8
:101B5000024801220B46FFF727FF08BD048FFF1F35
:101B6000002208B5024801211346FFF71DFF08BDFA
:101B7000048FFF1F002108B502480A460B46FFF7F5
:101B800013FF08BD048FFF1FF7B5214D6C68C823F4
:101B9000B4FBF3F2064603FB1240400005F0E8FEFA
:101BA00019A3D3E9002305F059FF0022194B06F0D1
:101BB0007FF804F021FCFF2324098DF80530002272
:101BC000154B8DF8044005F049FF0022114B05F03C
:101BD00093FD06F005FA00248DF8060005F10807CC
:101BE00006E0032101FB047101A804F0A8FA013406
:101BF0002B689C42F5D33046FFF70CFE074B0121C2
:101C0000186804F0E8F9FEBD182D4454FB21094082
:101C1000788AFF1F0000694000804B40A806010041
:101C200008B50248FFF7B0FF08BD00BF048FFF1FD3
:101C3000F0B5044685B00025214F3AE07A68637A12
:101C4000AA18B2FBF3F103FB1123217A5B188DF87C
:101C5000043001A8FF2369468DF805308DF8063061
:101C600004F06DFA9DF800308DF808309DF80130D1
:101C7000EEB28DF809309DF802302046314602AAB6
:101C80008DF80A30FFF796FD237906EB53019DF896
:101C900000308DF80C309DF801308DF80D309DF836
:101CA00002302046C9B203AA8DF80E30FFF782FD3C
:101CB00001352379B5EB530FC0DB05B0F0BD00BF94
:101CC000788AFF1F13B50C48FFF7B2FF0B48FFF7E8
:101CD000AFFF0B4B1C680B4B00211878642300935B
:101CE000FF220B4603F003FC0146204602B0BDE88C
:101CF000104004F070B900BF188FFF1F248FFF1F22
:101D0000A80601000484FF1F2DE9FF410579DFF8D3
:101D1000A08006466D08002446E0D8F80420B2FBF7
:101D2000F5F305FB1323A34233D1FF23B2FBF3F1F9
:101D300003FB112201A869468DF804208DF80530B7
:101D40008DF8063004F0FBF99DF800308DF808306E
:101D50009DF80130E7B28DF809309DF80230304629
:101D6000394602AA8DF80A30FFF724FD9DF80030AD
:101D70008DF80C309DF8013079198DF80D309DF8F3
:101D800002303046C9B203AA8DF80E30FFF712FDBB
:101D900009E0E7B230463946FFF72AFD79193046A7
:101DA000C9B2FFF725FD0134AC42B6DBBDE8FF81C7
:101DB000788AFF1F2DE9F04FDFF8AC8087B0054629
:101DC0000391002408F1080B48E02846E1B2FFF730
:101DD0000FFD2B684FEA440903EB090213F8143096
:101DE0005778FF1AD8F804301E22B3FBF2F0002116
:101DF000013702FB103000970B4603F078FB039B82
:101E000082463BB12B79B4EB530FA4BFC0EB070262
:101E100002F1FF3A00262B6813F8091006EB0A03BB
:101E200093FBF7F007FB1033D8F80400C91800EB58
:101E30004600FF23B0FBF3FE03FB1E008DF81530B8
:101E40008DF8163003238DF8140003FB01B105A8AB
:101E5000013604F074F9032EDDD101342B799C4254
:101E6000B3DB07B0BDE8F08F788AFF1FFFFFFFFFED
:101E70002DE9F74FDFF80CB1DFF80C919BF800006B
:101E800000214FF0500A0B46FF22CDF800A003F0CE
:101E90002EFBD9F804304FF4C878B3FBF8F20446AF
:101EA00008FB1230400005F063FD31A3D3E90023A5
:101EB00005F0D4FD0022304B05F0FAFE04F052FA92
:101EC000064620460F4605F063FD002204460D46F7
:101ED0002A4B3046394605F0C1FD02460B462046E6
:101EE000294605F009FC0022002306F029F80146E6
:101EF000002833D10B46FF229BF80000CDF800A04C
:101F000003F0F5FAD9F80430B3FBF8F2044608FB05
:101F10001230400005F02CFD15A3D3E9002305F095
:101F20009DFD0022144B05F0C3FE04F01BFA06468B
:101F300020460F4605F02CFD002204460D460F4BAF
:101F40003046394605F08AFD02460B4620462946B2
:101F500005F0D2FB06F044F8014600E00021084BF2
:101F6000186803B0BDE8F04F04F035B8AFF3008057
:101F7000182D4454FB2109400000794000003E40E8
:101F8000A80601000484FF1F788AFF1FAFF30080BA
:101F900010B5044C2046FFF7B7FE2046FFF768FF58
:101FA00010BD00BF388FFF1F10B5044C0021204624
:101FB000FFF700FF2046FFF75BFF10BD388FFF1FC4
:101FC00010B5044C01212046FFF7F4FE2046FFF730
:101FD0004FFF10BD388FFF1F38B51A4D1A4C2BE03C
:101FE00002F016FDC0B23F2807D004DC2B281ED01B
:101FF0002D2821D11DE061281ED114491448FFF776
:1020000087FB95F8CC141248FFF78FFB1149104855
:10201000FFF77EFB21780E48FFF787FB0E490C483F
:10202000FFF776FB61780A48FFF77FFB04E00120A9
:1020300000E00020FFF73EFA02F030FD0028CFD18B
:1020400038BD00BF788AFF1F0484FF1F0E04010003
:102050000C93FF1F180401002004010013B50F4C5E
:1020600094F8CC24D4F8D83453F8323098476368C5
:10207000013363600A4B1868FFF784FB094BD4F8FF
:10208000D4141B680193D4F8D034019ACB189A4227
:1020900002D90120FFF70EFA1CBD00BF788AFF1F8E
:1020A000A80601002090FF1F38B5054640F2F31442
:1020B00001F016FA2B88C01A83B2A342F8D938BDB2
:1020C000A64B2DE9F74F1A68A54C42F080721A60B2
:1020D000A44B1A6842F001021A60A34A002323604D
:1020E0001768136847F0080723F008030097136088
:1020F000427A017B891A02684172527812B182FADF
:1021000051F2D2B290F80F8026689549964D12FB95
:1021100008F24FEA122878360C462A468C4613E11C
:1021200090F80BA090F80890C9EB0A0980F8089085
:1021300090F80CA090F80990C9EB0A0980F8099072
:1021400090F80DA090F80A90C9EB0A0980F80A905F
:102150004FF00709D1F800A0B245FBD30E68009FED
:10216000783618F0800F2F6007D0D4F800A0CAEBA3
:10217000060ABAF1240FF8D806E0D4F800A0CAEB9A
:10218000060ABAF1610FF8D84FEA4808B9F1010917
:1021900013605FFA88F8DDD1D1F80090B145FBD328
:1021A0002668009F783618F0800F2F6007D0DCF883
:1021B0000080C8EB0608B8F1240FF8D806E0DCF878
:1021C0000080C8EB0608B8F1610FF8D8D0F800908D
:1021D000136099F80080B8F1000F05D090F808A0BE
:1021E00088FA5AF85FFA88F890F80EA018FB0AF8F7
:1021F0004FEA18284FF0070AD1F800B0B345FBD3D7
:102200000E68009F783618F0800F2F6007D0D4F842
:1022100000B0CBEB060BBBF1240FF8D806E0D4F8E6
:1022200000B0CBEB060BBBF1610FF8D84FEA4808C2
:10223000BAF1010A13605FFA88F8DDD1D1F800A085
:10224000B245FBD32668009F783618F0800F2F60C8
:1022500007D0DCF80080C8EB0608B8F1240FF8D8E6
:1022600006E0DCF80080C8EB0608B8F1610FF8D88A
:10227000136099F80280B8F1000F05D090F80AA019
:1022800088FA5AF85FFA88F890F810A018FB0AF854
:102290004FEA18284FF0070AD1F800B0B345FBD336
:1022A0000E68009F783618F0800F2F6007D0D4F8A2
:1022B00000B0CBEB060BBBF1240FF8D806E0D4F846
:1022C00000B0CBEB060BBBF1610FF8D84FEA480822
:1022D000BAF1010A13605FFA88F8DDD1D1F800A0E5
:1022E000B245FBD32668009F783618F0800F2F6028
:1022F00007D0DCF80080C8EB0608B8F1240FF8D846
:1023000006E0DCF80080C8EB0608B8F1610FF8D8E9
:10231000136090F81180019FC14407F1FF38C0F8A5
:102320000090C0F8048099F80180B8F1000F05D042
:1023300090F8099088FA59F85FFA88F890F80F90A9
:1023400018FB09F84FEA18284768002F01973FF754
:10235000E7AE034B1868BDE8FE8F00BFFCED00E060
:10236000041000E0001000E080F00F4030B5254B75
:102370001A780132D2B202F0020412F0010FE4B274
:102380001A70D1B20CBF002380231CB1002B14BFE4
:10239000C023402302F00404E4B20CB143F0200354
:1023A00002F00804E4B20CB143F0100302F0100490
:1023B000E4B20CB143F0080302F02004E4B20CB123
:1023C00043F0040302F04002D2B20AB143F0020328
:1023D0000A0648BF43F001034FF480740021827B5A
:1023E0001AB194FBF2F20132D2B213FB02F52D12B4
:1023F000C27205720AB1013AC27201310130032979
:10240000EDD130BD908FFF1F012908B502D1FFF734
:10241000ADFF08BD002242730273C2728272427223
:10242000027208BD30B587B0857C02921A7801919E
:102430008DF812205A789B788DF81320044629468F
:1024400001A88DF81430FFF7DFFF002304F120000E
:102450008DF81530FFF728FE72B601A8FFF730FEA1
:10246000084B60211A68B0FBF1F04FF47A7590FBCD
:10247000F5F18A181A6062B601F032F8208407B0CC
:1024800030BD00BF2090FF1F30B587B0857C029221
:102490001A7801918DF812205A789B788DF81320C4
:1024A0000446294601A88DF81430FFF7ADFF032339
:1024B00004F120008DF81530FFF7F6FD72B601A883
:1024C000FFF7FEFD084B60211A68B0FBF1F04FF4F6
:1024D0007A7590FBF5F18A181A6062B601F000F87F
:1024E000208407B030BD00BF2090FF1FF8B5174F04
:1024F000174C07F1D0060123002531460C2204F5C4
:10250000946084F8903484F89834C4F88C54C4F8F7
:102510009454FFF73AF9E62384F8A83407F1E80168
:102520005A230C220B4884F8A934FFF72EF96E23A6
:1025300084F8B43404F59860642331460C2284F89E
:10254000B534FFF722F9C4F8C854F8BD08030100F8
:10255000788AFF1F248FFF1FF0B530483049036889
:102560001B06FCD40B6813F08002F8D172B62D4B19
:102570001978002950D02C4908684F688E68CD68BA
:102580000C6938181431801909684019001940186D
:10259000C0F34E00254940F400400860C86A0F6B44
:1025A0004E6B8D6BCC6B381840318019096840191F
:1025B00000194018C0F34E001D4940F40040086067
:1025C00001F10811143151F8140C51F8107C51F834
:1025D0000C6C51F8085C51F8044C096838188019E3
:1025E000401900194018C0F34E00124940F4004051
:1025F0000860C86A0F6B4E6B8D6BCC6B381840311E
:1026000080190968401900194018C0F34E000A49A2
:1026100040F4004008601A7062B6F0BD24B0034078
:1026200024B00B40918FFF1F38B003402CB0034003
:1026300030B003402CB00B4030B00B40224B602236
:102640001A70E1225A70214B214A1978214B08292E
:1026500001D1012102E00A2907D139211160132299
:102660001A601D4B19605A600BE00C291A4901D100
:10267000352000E03D20106012221A60174B0860E0
:102680001A60174B17495B78174A03B101230B6097
:1026900013600E4B154A5978154B012901D880213A
:1026A0000CE0042901D8842108E0082901D88521FB
:1026B00004E0102901D8862100E08721116019600B
:1026C000074B01221A707047004007400684FF1F25
:1026D00008B003400CB0034008B00B400CB00B40F6
:1026E000918FFF1F20B0034020B00B4024B0034067
:1026F00024B00B400D4B5A7858B1AAB9012159703A
:102700001B7823B10A4B1A6003F500231A60FFF708
:1027100095BF4AB158701B78002BF8D0044B186055
:1027200003F500231860F2E7704700BF918FFF1F89
:1027300024B003400C2810B503D91023102807D863
:1027400009E00A2806D8082894BF08230A2302E0D3
:10275000184600E00C23DCB2084A0949201A9070A0
:102760000878834209D013780C7013B1054B00220E
:102770001A60BDE81040FFF761BF10BD918FFF1FC9
:102780000684FF1F24B0034010B5114B1B7804468C
:102790000BB1FFF7E1FE012C0E4A01D8002302E045
:1027A000042C02D8042313600EE0082C03D8052360
:1027B0001360082308E0102C03D8062313601023AD
:1027C00002E0072313602023034A537010BD00BFAB
:1027D000918FFF1F24B003400684FF1F0D282DE9B1
:1027E000F0410FD9172801D80E380AE0A0F11A03DA
:1027F000052B01D8093804E0A0F12203062B50D89C
:102800001838C0B2284B1C5C284B1B780BB1FFF763
:10281000A3FE72B6220617D4254D244E01272C6044
:10282000F77062B672B62B6813F0800F1F4B04D09E
:10283000204A10680022DA7026E0F378002BEED0F0
:1028400062B602F037FAEDE704F040071A4D174E72
:10285000FFB204F03F044FF00108184B1A6817B19B
:1028600022F0100201E042F010021A602C6086F89B
:10287000048062B672B62B6813F0800F0B4B09D040
:102880000F4A106800221A7162B69B7840FA03F072
:10289000BDE8F0813379002BDFD062B602F00AFA8E
:1028A000E8E70020BDE8F0812D040100918FFF1FB3
:1028B00000B0034010B0034000B00B400CB00B4020
:1028C00010B00B400B4B1A6842F480521A600A4B4E
:1028D0005A780A4B0AB1802200E0C0221A7040F6F2
:1028E000FF739842A8BF1846054B20EAE070188095
:1028F000704700BF2C800440918FFF1F21C00C4007
:1029000000C00C40024A1378DB07FCD5704700BFBB
:102910000100024030B5194B85B06C4603F110053B
:1029200018685968224603C20833AB421446F7D1EF
:10293000134B1B7803F00203DBB2BBB1114B8022B7
:102940001A7033221A710322DA7072B60E4C6B467B
:1029500043F001032046984762B6237813F07003D2
:1029600004D0237008E0013B03D105E0044944F69C
:1029700021630A78D207F6D505B030BD44040100C2
:10298000010002400700024000000240B0F5006F65
:1029900010B5044609D2064B1B78D90701D4FFF7BE
:1029A000B9FF04F1A054207810BD002010BD00BF75
:1029B0000100024040F2FE73984210B5044609D867
:1029C000054B1B78D80701D4FFF7A4FF04F1A054EE
:1029D000208810BD002010BD0100024040F2FC73B1
:1029E000984210B5044609D8054B1B78DB0701D483
:1029F000FFF790FF04F1A054206810BD002010BD27
:102A00000100024070B50F4B1B788E18DA0705469F
:102A10000C4601D4FFF77EFF04F1A053B6F5006F1A
:102A200034BF32464FF400622C1B06E013F8010B52
:102A3000E11801F16C4101F8010C03F16C41914284
:102A4000F4D370BD01000240024B187800F0010081
:102A5000704700BF01000240B0F5006F38B5044672
:102A60000D460FD2084B1B78D90701D4FFF752FF50
:102A700004F1A0542378AB4204D02570BDE838405F
:102A8000FFF740BF38BD00BF0100024038B540F23B
:102A9000FE73984205460C4620D8114B1B78D80788
:102AA00001D4FFF737FF15F0010F05F1A05304D152
:102AB0001A88A24212D01C800CE01A78A24202D0DE
:102AC0001C70FFF71FFF05F1A055240A6B78A34285
:102AD00004D06C70BDE83840FFF714BF38BD00BFAC
:102AE0000100024038B540F2FC73984205460C469E
:102AF0003AD81E4B1B78DB0701D4FFF70BFF15F00C
:102B0000030205F1A05302D0022A13D104E01A688F
:102B1000A24229D01C6023E01A88A24202D01C8065
:102B2000FFF7F0FE05F1A055240C6B88A3421BD0E3
:102B30006C8015E01A78A24202D01C70FFF7E2FE0A
:102B400005F1A055230AB5F801209A4203D0A5F853
:102B50000130FFF7D7FEEB78240EA34204D0EC70CF
:102B6000BDE83840FFF7CEBE38BD00BF01000240CF
:102B7000B1F5006FF8B506460F4614460D464ED225
:102B8000274B1B78DA0701D4FFF7C4FE40F2FF732E
:102B90009C4288BF4FF400643A199A423DD9C7F568
:102BA00000643AE015F0030317D1032C17D97378AA
:102BB000B27831781B0243EA0243F27841EA0262BA
:102BC0001A4305F1A05304361968914202D01A60E5
:102BD000FFF798FE0435043C1FE0022B11D1012CB5
:102BE0000FD0727816F8023B43EA022205F1A05397
:102BF0001988914202D01A80FFF784FE0235023C08
:102C00000BE005F1A05316F8012B1978914202D080
:102C10001A70FFF777FE0135013C002CC2D1F8BDD8
:102C200001000240024B1A6801321A60704700BF6F
:102C30002090FF1F38B50B4C25462368580301D55B
:102C400001F03AFB2B68590501D500F0B7FE2B685F
:102C50001A0501D501F06EF82368DB04EDD501F00B
:102C6000CBF9EAE73480044008B5FFF7E3FF024BF5
:102C700010221A80704700BF002005407047034AA9
:102C80001368181810601846704700BF0884FF1FAB
:102C9000002070474FF0FF3070474FF400534B60F7
:102CA00000207047012070474FF0FF307047FEE76B
:102CB000FEE7012070477047EFF313839BB9EFF3F2
:102CC000108098B9EFF3058323B10F2B04D9084A7C
:102CD000985C01E04FF48070EFF311833BB19842B0
:102CE00028BF184670474FF0FF30704718467047AE
:102CF000F0E300E0002300E00133C25C002AFBD1D6
:102D00001846704710B50023B0FBF2F402FB140024
:102D1000092801D8303000E03730C85420460CB1C3
:102D20000133F1E7CA185470224605E0885CCC5C98
:102D30008C54C8540132013B9A42F7DB084610BD5F
:102D4000031E10B50C4603DBBDE81040FFF7DABFE9
:102D50002D2001F8010B5842FFF7D4FF204610BD8B
:102D6000F0B50F4687B016461C463A463346054630
:102D7000074901A806F0F4F8284604F01BFE0246B5
:102D80000B46204601A906F0EBF8204607B0F0BD3F
:102D900054040100084B4FF400021A604FF0807297
:102DA0001A604FF000721A604FF080621A604FF0A4
:102DB00000621A60704700BF08E100E0212830B5CA
:102DC00021D8042A1FD8DFE802F00709050B030009
:102DD0000B2306E00A2304E0082302E00C2300E0B2
:102DE0000923094A02EBC002526872B61468074D03
:102DF00024F47024146044F0807444EA034345F8DA
:102E00002010136062B630BD60040100988FFF1F70
:102E1000094B03EBC0035B6872B61A6822F0877235
:102E200022F4803242F080721A60044B002243F890
:102E3000202062B6704700BF60040100988FFF1F1A
:102E4000114B10B51C68E0041C6004D50F4BDA6808
:102E50000AB1DB689847A10404D50C4B1A690AB182
:102E60001B699847A20604D5084B1A6E0AB11B6E5F
:102E70009847E30606D5054BD3F8842012B1D3F862
:102E80008430984710BD00BFA0900440988FFF1F6A
:102E90001F4B10B51C68E0031C6004D51D4B1A685D
:102EA0000AB11B689847A10304D51A4B5A680AB1A6
:102EB0005B689847E20704D5164B1A6C0AB11B6C85
:102EC0009847A30704D5134B5A6C0AB15B6C98471B
:102ED000200704D50F4B9A6C0AB19B6C9847610789
:102EE00004D50C4BDA6C0AB1DB6C9847220304D58D
:102EF000084B5A6E0AB15B6E9847630306D5054BC3
:102F0000D3F8802012B1D3F88030984710BD00BFAD
:102F1000A0A00440988FFF1F2C4B10B51C68200701
:102F20001C6004D52A4B5A6A0AB15B6A9847E106CD
:102F300004D5274B9A6A0AB19B6A9847620604D562
:102F4000234BDA6A0AB1DB6A9847230604D5204B83
:102F50001A6B0AB11B6B9847A00604D51C4B5A6B21
:102F60000AB15B6B9847E10704D5194BDA6B0AB1DC
:102F7000DB6B9847A20704D5154B9A6D0AB19B6D80
:102F80009847630704D5124BDA6D0AB1DB6D984799
:102F9000A00504D50E4BDA6E0AB1DB6E9847E10549
:102FA00004D50B4B1A6F0AB11B6F9847620504D505
:102FB000074B5A6F0AB15B6F9847230504D5044B42
:102FC0009A6F0AB19B6F984710BD00BFA0B0044034
:102FD000988FFF1F1E4B10B51C68E0071C6004D5BE
:102FE0001C4B9A680AB19B689847210604D5194B77
:102FF0005A690AB15B699847E20604D5154B9A698C
:103000000AB19B699847630704D5124BDA690AB184
:10301000DB699847200704D50E4B1A6A0AB11B6A70
:103020009847A10704D50B4B9A6B0AB19B6B984745
:10303000A20604D5074B1A6D0AB11B6D98476306AB
:1030400004D5044B5A6D0AB15B6D984710BD00BFA3
:10305000A0C00440988FFF1F094B10B51C68A20741
:103060001C6004D5074B9A6E0AB19B6E9847E30724
:1030700004D5044BDA6F0AB1DB6F984710BD00BF6F
:10308000A0D00440988FFF1F014B1868704700BF05
:1030900000D00340044B054900221A600A60044A2C
:1030A000106010221A60704714D0034004D003400F
:1030B00000D00340002810B50FDB02024FF48073EC
:1030C00047F6FF7400E00A46A24204D9013B012BF7
:1030D000C0EB0201F7D1120A11E0404202024FF4A4
:1030E000807348F2FF0400E00A46A24204D9013B83
:1030F000012BC0EB0201F7D1120AC2F58072013B2D
:10310000024942EA03220A6010BD00BF0CD003400E
:1031100018B1102828BF102000E00120014B1870C2
:10312000704700BF0C84FF1F10B500234FF43772A7
:1031300042FA03F4A14202D80133072BF8D1164A10
:1031400042FA03F202EB5102B2FBF1F101394FF600
:10315000FF72914228BF1146C21E012A06D80F4AAB
:103160000F4C0020106020600E480FE0421F012A23
:1031700006D9092804D00A2802D01438032809D80F
:10318000094A0A4C002010602060094843F00803F7
:103190000160136010BD00BF006CDC0200900340B2
:1031A00004900340089003400080034004800340E3
:1031B00008800340212810B518D80D4A52F8303045
:1031C00093F880423CB1012211B183F8802010BDF8
:1031D00083F8002110BD02EBC00043681A6811B1EA
:1031E00042F0030201E022F002021A6010BD00BFAB
:1031F00060040100212805D8034B53F8303093F8C0
:10320000000270470020704760040100212816D892
:103210000B4A02EBC00301295B6852F8302004D14D
:1032200082F880124FF4A27208E0002082F8800237
:1032300011B94FF4807201E040F203121A60704736
:1032400060040100282838B50A4604464E4B0FD1C9
:103250001B780B2B03D8C3F10C039A4003E00C2B13
:1032600001D00C3B1A411046BDE83840FFF72ABB9D
:1032700019780125002A05FA01F301DC002102E09A
:103280009A4205D32946FFF795FF2046294676E066
:10329000C31E012B01D83D4B06E0192801D0202880
:1032A00001D13B4B00E03B4B1B680133534323FAF6
:1032B00001F3E11E1D2959D8DFE801F00F151B218C
:1032C0005858272D58585858585858585833393F37
:1032D0004558515858585858584B2F4A13604FF476
:1032E00051722E4B40E02E4A13604FF451722D4B19
:1032F0003AE02D4A136040F244422C4B34E02C4A11
:10330000136040F244422B4B2EE02B4A136040F2F4
:1033100044422A4B28E02A4A136040F24442294B97
:1033200022E0294A136040F24442284B1CE0284A1C
:10333000136040F24442274B16E0274A136040F2E4
:103340004442264B10E0264A136040F24442254B8B
:103350000AE0254A13604FF45172244B04E0244ADA
:103360001360244B4FF451721A6038BD7F2A2046F7
:10337000D4BF00210121FFF71DFF20460121BDE838
:103380003840FFF743BF00BF0C84FF1F0890034085
:1033900008800B40088003401090034030900440A8
:1033A0001890034034900440488003401CC00440FF
:1033B0003080034010C00440208003400CB0044023
:1033C0002880034010B004403880034014C00440FB
:1033D0004080034018C004401080034004B0044003
:1033E0001880034008B0044010800B4048A00440FF
:1033F00018800B404CA004402DE9F04107460E46D2
:1034000090460824012505EA08013846FFF7D2FE58
:1034100001213046FFF7CEFE002130466D00FFF758
:10342000C9FE013CEDB2EED1BDE8F0812DE9F041DD
:1034300007460E4690460824802505EA08013846CE
:10344000FFF7B8FE01213046FFF7B4FE00213046F9
:10345000FFF7B0FE6D08013CEFD1BDE8F08112B975
:103460001A46FFF7C9BF1A46FFF7E0BF2DE9F04142
:1034700080460F4608240025012638460121FFF723
:1034800099FE4046FFF7B6FE00B1354300213846AD
:103490007600FFF78FFE013CF6B2EED12846BDE87C
:1034A000F0812DE9F04180460F4608240025802652
:1034B00038460121FFF77EFE4046FFF79BFE00B134
:1034C000354300213846FFF775FE7608013CEFD101
:1034D0002846BDE8F0810AB9FFF7C8BFFFF7E1BF92
:1034E00072B60C4B0C491A680C4BD3F8883009683B
:1034F00062B6490102D5322A88BF0133C2F5BB3218
:10350000FF326021B2FBF1F24FF47A7000FB03202E
:10351000704700BF18E000E004ED00E0988FFF1F47
:1035200070B50446FFF7DCFF05466CB140F2E736A4
:10353000FFF7D6FF401BB04203D9013C04D005F58C
:103540007A7501F0B7FBF3E770BD10B5FFF722FC09
:10355000154B164A164C00204BF6FF711860596047
:103560002823136093601361936113629362136362
:103570009363092222600F4C20606160A360236185
:1035800044F8042C0C4C20600C4801600C490B6082
:103590008B600C4B1A60FFF751F80420FFF7C0FF57
:1035A000BDE8104001F0A6B9048003400C80034040
:1035B000008003400490034004800B4008800B40CF
:1035C0000C800B4000800B4070B50E2405464C4328
:1035D00003E0013C01D1002070BD2B78002BF8D115
:1035E00001E0013CF7D02B78002BFAD0FFF778FFF1
:1035F000064601E0013CEED02B78002BFAD1FFF714
:103600006FFF801B70BD70B50E2405464C4303E070
:10361000013C01D1002070BD2B78002BF8D001E0D7
:10362000013CF7D02B78002BFAD1FFF759FF064663
:1036300001E0013CEED02B78002BFAD0FFF750FFD1
:10364000801B70BD21280BD8064B53F8300000F5C5
:10365000007011B11146FFF7B7BF1146FFF7D3BF96
:103660000020704760040100194B1A6842F4806220
:103670001A60184B00221A705A709A70DA701A7118
:10368000154B40F213321A604FF451725A60134BCB
:10369000C0F344321A70C0F347125A7000F01F0092
:1036A0000F4A98720221042313705174D3740D4B86
:1036B00088221A703C2203F80D2C0B4B40226FF429
:1036C0004A711A705B184FF400521A60704700BFBD
:1036D000348004402490FF1F40A0044000A0064016
:1036E00002A0064010A006402DE400E0134A137823
:1036F00000F0030103F0EC030B43410748BF43F024
:103700001003137000F00F03042B04D10C4B1A7834
:1037100042F040021A700B4A1378C10603F0EF031F
:1037200048BF43F010031370054A1378800603F076
:10373000EF0348BF43F010031370704702A0064028
:1037400006A0064005A006400D4B1B68580510B5A5
:1037500003D410BD01F0AEFA00E00A4C2379094A07
:10376000002BF7D108494FF400500860074908487A
:103770000B7040F20311016041601370537010BD73
:10378000348004402490FF1F84E100E003A0064041
:1037900040A0044038B5094B04461D79002DFCD1EA
:1037A00020460121FFF732FD20462946FFF702FDA2
:1037B000034B53F83420014B9A6038BD2490FF1F0F
:1037C000600401001C4B1B685A052DE9F0410646B8
:1037D00030D51A4A93680BB1012119709478174DAE
:1037E000174FDFF8648001343F2C88BF002415E0B8
:1037F000FFF762FA40280DDC3B781B060ED5EB780C
:1038000001333F2B88BF0023EA18127B88F8002081
:10381000EB7003E0FF2801DD01F04CFAEA78074B7A
:10382000A242E5D01A19167301221A719C70054B39
:10383000BC221A70BDE8F081348004402490FF1F40
:1038400004A0064003A0064007A0064000F00F00B9
:10385000092801D8303000E03730FFF7B3BF2DE939
:10386000F84F254B1B6807465805894642D5234B20
:103870009B680BB101221A70204C3E46A34632E0F1
:10388000A5789BF8038001353F2D88BF0025A8450A
:1038900007D0631916F8012B1A7301232371A57041
:1038A00021E0174BDFF860A0BC221A70FFF704FA82
:1038B000402810DC9AF80030190610D5E37801335F
:1038C0003F2B88BF00230BEB0302117B0D4A1170C5
:1038D0008BF8033003E0FF2801DD01F0EBF9E3781A
:1038E0004345E3D0D5E707EB09039E42C8D3044B19
:1038F000BC221A70BDE8F88F348004402490FF1F6A
:1039000003A0064007A0064004A0064010B5044CE2
:1039100001E001F0CFF92379002BFAD110BD00BFEF
:103920002490FF1F034A10785378984238BF4030E4
:10393000C01A70472490FF1F084A117853789942A3
:1039400008D001333F2B88BF0023D11891F84C00D9
:10395000537070474FF0FF30704700BF2490FF1F37
:10396000074A11785378994207D001333F2B88BF1B
:103970000023D31893F84C0070474FF0FF30704786
:103980002490FF1F094B1B685B050ED5084B1A7866
:1039900002F0CB021A70074A402111701A7842F0E7
:1039A00034021A70044B5A781A70704734800440FD
:1039B00003A0064011A006402490FF1FF0B5304B35
:1039C0001B7813F0300F21D072B62E4B197831B915
:1039D0000F3B40221B782C4B1A7062B616E062B681
:1039E0002A4B2B4C1A7858781D46531C3F2B88BF06
:1039F00000238342267803D0EA1882F84C601A46E6
:103A0000013911F0FF01F0D1204B1A70214B1B78C6
:103A100018465BB2002B1EDA19490B781B061AD523
:103A20001A4A1B4E97781C4DD378BB420AD00133FB
:103A30003F2B88BF00230C78D418247B34702C785B
:103A4000072CF2D9114AD3700D4B1B781A0602D5F8
:103A5000104B7C221A7000F04003DBB273B1084BAC
:103A60001B7803F04003DBB243B1084B00221A710C
:103A70009B6803B11A70074B3C221A70F0BD00BF5F
:103A800004A0064016A0064011A006402490FF1F87
:103A900007A0064003A0064014A0064038B5451E06
:103AA00007E00A2C02D10D20FFF78CFE2046FFF71D
:103AB00089FE15F8014F002CF3D138BD10B504462E
:103AC0000009FFF7C3FE2046BDE81040FFF7BEBE69
:103AD00010B50446000AFFF7F1FF2046BDE810408C
:103AE000FFF7ECBF10B50446000EFFF7E7FF200C10
:103AF000FFF7E4FF200AFFF7E1FF2046BDE8104092
:103B0000FFF7DCBF144B1A6842F400621A60134AD4
:103B10000023137053709370D3701371104A40F2E6
:103B2000133111604FF4517151600E4AC0F34431AA
:103B30001170C0F3471100F01F0051709072937024
:103B40001374094B2C221A70084B40221A70084B30
:103B50004FF400421A60704734800440B090FF1F59
:103B60000CB0044000B0064003B006402FE400E073
:103B700004E100E0134A137800F0030103F0EC03C2
:103B80000B43410748BF43F01003137000F00F03CD
:103B9000042B04D10C4B1A7842F040021A700B4AE5
:103BA0001378C10603F0EF0348BF43F0100313700E
:103BB000054A1378810603F0EF0348BF43F0100372
:103BC0001370704702B0064006B0064005B00640CC
:103BD0000D4B1B68180510B503D410BD01F06AF831
:103BE00000E00A4C2379094A002BF7D108494FF429
:103BF00000400860074908480B7040F2031101605B
:103C000041601370537010BD34800440B090FF1FAA
:103C100084E100E003B006400CB004401A4B1B687E
:103C20001A052DE9F04106462BD5184D184FAC78F2
:103C3000DFF864800134272C88BF002415E0FFF7EB
:103C40003BF840280DDC3B781B060ED5EB780133A2
:103C5000272B88BF0023EA18527988F80020EB70E0
:103C600003E0FF2801DD01F025F8EA78074BA242C6
:103C7000E5D01A19567101221A719C70054BAC22BD
:103C80001A70BDE8F08100BF34800440B090FF1F7F
:103C900004B0064003B0064007B0064038B54518EA
:103CA000044603E014F8010BFFF7B8FFAC42F9D16A
:103CB00038BD10B5034C01E000F0FCFF2379002B68
:103CC000FAD110BDB090FF1F034A10785378984284
:103CD00038BF4030C01A7047B090FF1F084A1178B3
:103CE0005378994208D001333F2B88BF0023D11865
:103CF00091F82D00537070474FF0FF30704700BFB0
:103D0000B090FF1F074A11785378994207D00133CA
:103D10003F2B88BF0023D31893F82D0070474FF036
:103D2000FF307047B090FF1F014B5A781A707047F0
:103D3000B090FF1F10B5204B1B7803F02003DBB2BF
:103D400073B11E4B1E4A18781378517801333F2BFC
:103D500088BF00238B4203D0D11881F82D00137047
:103D600018490B7818465BB2002B14DA124B1B78FB
:103D70001B0610D5124A9478D3789C4202D16C234A
:103D80000B7008E00133272B88BF0023D1184C7932
:103D90000A490C70D37000F04003DBB25BB1064BF4
:103DA0001B7803F04003DBB22BB1054B00221A71E4
:103DB000044B2C221A7010BD04B0064007B0064018
:103DC000B090FF1F03B00640154B1A6842F48052B2
:103DD0001A60144A0023137053709370D3701371D8
:103DE000114A40F2133111604FF4517151600F4A82
:103DF000C0F344311170C0F3471100F01F0051703F
:103E00009072937013740A4B2C221A70094B402243
:103E10006FF44B711A705B184FF400321A607047E0
:103E2000348004401D91FF1F08C0044000C00640BC
:103E300003C0064031E400E0134A137800F00301A8
:103E400003F0EC030B43410748BF43F0100313702A
:103E500000F00F03042B04D10C4B1A7842F04002FF
:103E60001A700B4A1378C10603F0EF0348BF43F002
:103E700010031370054A1378800603F0EF0348BF60
:103E800043F010031370704702C0064006C006409E
:103E900005C006400D4B1B68D80410B503D410BDF7
:103EA00000F008FF00E00A4C2379094A002BF7D103
:103EB00008494FF400300860074908480B7040F289
:103EC0000311016041601370537010BD34800440D1
:103ED0001D91FF1F84E100E003C0064008C00440BC
:103EE0001A4B1B68DA042DE9F04106462BD5184D14
:103EF000184FAC78DFF864800134272C88BF002489
:103F000015E0FEF7D9FE40280DDC3B781B060ED5E8
:103F1000EB780133272B88BF0023EA18527988F801
:103F20000020EB7003E0FF2801DD00F0C3FEEA781B
:103F3000074BA242E5D01A19567101221A719C70E2
:103F4000054BAC221A70BDE8F08100BF34800440FC
:103F50001D91FF1F04C0064003C0064007C0064075
:103F600038B54518044603E014F8010BFFF7B8FF15
:103F7000AC42F9D138BD10B5034C01E000F09AFE17
:103F80002379002BFAD110BD1D91FF1F034A107831
:103F90005378984238BF4030C01A70471D91FF1FB8
:103FA000084A11785378994208D001333F2B88BFD3
:103FB0000023D11891F82D00537070474FF0FF3057
:103FC000704700BF1D91FF1F074A1178537899422F
:103FD00007D001333F2B88BF0023D31893F82D005F
:103FE00070474FF0FF3070471D91FF1F014B5A780B
:103FF0001A7070471D91FF1F10B5204B1B7803F0FE
:104000002003DBB273B11E4B1E4A18781378517827
:1040100001333F2B88BF00238B4203D0D11881F896
:104020002D00137018490B7818465BB2002B14DA78
:10403000124B1B781B0610D5124A9478D3789C42F9
:1040400002D16C230B7008E00133272B88BF0023BB
:10405000D1184C790A490C70D37000F04003DBB2E0
:104060005BB1064B1B7803F04003DBB22BB1054B71
:1040700000221A71044B2C221A7010BD04C0064095
:1040800007C006401D91FF1F03C006401FB572B652
:10409000124B70221A70124A412111700F2102F83E
:1040A000011C80221A701A781206FCD562B60D4BDC
:1040B00001A918680A22FEF725FE0B48002301AA71
:1040C0009A5C2AB100EB430101330A2B4A80F6D1F6
:1040D0000133054A5B00137005B000BD00000240CB
:1040E00007000240080002400E84FF1F70B50C4B11
:1040F0000C4C1A7842F0020504EBC50682F001026E
:10410000706058781A7000280CBF8826C82646EAC6
:10411000014180F0010044F83510587070BD00BFB7
:104120008C91FF1F0080FF1F431E032B10B510D87A
:1041300072B6094A02EB8302506808B141685160C7
:10414000064A018832F81340611A22F8131062B649
:1041500010BD002010BD00BF8C91FF1F6093FF1F9A
:10416000013803280DD8084B03EB8000436972B671
:10417000002002E01A885B688018002BFAD162B632
:1041800070470020704700BF8C91FF1F0138032843
:104190000CD872B6064B03EB80004369002001E0A7
:1041A0005B680130002BFBD162B67047002070477E
:1041B0008C91FF1F70B572B61A4E1B4C01239A19D1
:1041C00012F8012C02F00802D2B2F2B19900164A9C
:1041D00054F831502DB902EB431308305860134B9B
:1041E00009E041F0010154F8315075B902EBC10307
:1041F000083058600E4B42F831300E4B93F82420B3
:10420000013A83F8242062B670BD0133052BD6D164
:1042100062B6084B002283F82420BDE8704000F00D
:10422000D5BB00BF700501000080FF1F8800400063
:10423000C80040008C91FF1F421E032A30B533D8BE
:1042400040011A4B40F01000181872B6184CA31811
:1042500093F82530032B09D8DFE803F01302150586
:104260000830022310E0083004230DE09200A31868
:10427000586908B9596101E0DB6A5960A218D16236
:1042800011E0032300E00523A21810F0080F82F8C4
:10429000253001F108030A8843600CBF8823C82336
:1042A00043EA0243036062B630BD00BF0080FF1FD7
:1042B0008C91FF1F00BE70472DE9F74FA94EAA4C05
:1042C000357805F00403DBB2BBB1A84B93F844206A
:1042D0008AB193F845202AB1013AD2B283F8452039
:1042E00002B900BEA24A13782BB1013BDBB21370B6
:1042F0000BB900F0C3FC0423337005F00802D2B2FE
:10430000002A00F095829B4B1B781D094FEA930908
:1043100040F0008204EBC903596854F83930C3F304
:104320008303013B0C2B00F2F181DFE813F0A601BF
:10433000A601EF01EF01EF01EF01EF01EF01C40171
:10434000EF01EF01EF010D004B6888480A68C36474
:10435000894B826440F2816592B244F83930012180
:104360000023AA4203652361A361417019D8B2F505
:10437000D06F80F02881B2F5817F00F0E18006D80F
:10438000802A00F0C180822A40F03C81C1E040F2E6
:1043900002318A4200F00681B2F5A06F40F032810E
:1043A00034E1B2F5106F10D004D8B2F5086F40F0C8
:1043B0002981A2E042F221018A4200F05B8101F5ED
:1043C00000718A4240F01E8117E190F84A30664D34
:1043D00080F844302B6A180603D5686A083800F064
:1043E000F5FA664908358D42F4D1DFF8B0B1002501
:1043F000A846D9460BF1500A55F80B0005E0436872
:10440000009300F0E3FA009B18460028F7D15C4BBC
:1044100049F8050045F80A00E85807E042680093AB
:10442000019200F0D3FA019A009B10460028F5D1C2
:104430005851544BE850544B23F81800534B18F87C
:104440000320023A032A08D8DFE802F0020402043B
:10445000002200E0012203F8082008F101080435D9
:10446000B8F1040FC8D1414BDFF83491002283F832
:10447000242001259846464B05EB0902EB1812F85B
:10448000012C9B001A7002F00802D2B23AB300F07D
:104490007FFAAB0038B104EB4512083050603D4A5A
:1044A00044F8332006E044F8330098F82430013310
:1044B00088F8243000F06CFAAB0043F0010338B107
:1044C00004EBC302083050602B4A44F8332006E066
:1044D00044F8330098F82430013388F82430AA00D7
:1044E00042F00201013542F003020023052D44F899
:1044F000313044F83230BED188E090F8443005467F
:1045000005F83C3F0B4686E080F83C3080F83D30B3
:104510007EE0B0F84C20042A00D973E080F83C30EB
:1045200080F83D301C4B9200D3181B7803F0020337
:10453000DBB2002B6CD00546022305F83C1F6AE075
:10454000B0F84C2002F07F03042B5BDCB0F84A305B
:1045500003B157E09100104A8A18117821F0020146
:104560004EE000BF802007400080FF1F8C91FF1F9E
:104570008192FF1F90200740C80040008080FF1FED
:10458000A091FF1FB891FF1F6093FF1FB191FF1F04
:1045900030C8011088004000C02007409091FF1FE4
:1045A00070050100B0F84C2002F07F03042B29DCD9
:1045B000B0F84A3003B125E09100AF4A8A1811786B
:1045C00041F002011CE0B0F84A20B0F84C10AB4BAF
:1045D00053F8085CA3F10C00A5B133F80CCC94455A
:1045E00009D133F80ACC8C4505D1120A032A0CBF35
:1045F0002B7803890FE00C33EAE790F84A10A04AC1
:10460000117003E09C4B0F221A7033E01D4602E04C
:10461000022300F13C059B4AB2F84E904B4538BF4F
:104620009946B9F1400F34BFC8464FF040082846BC
:104630004146FFF75BFDB9EB0809454403D1B8F1EA
:10464000400F07D016E0B9F1400F34BFC8464FF015
:10465000400800E0C84628464146FFF747FDB9EB51
:104660000809454402D1B8F1400F03D1854A1565C8
:10467000A2F864900122844B47E0824BB3F84820B3
:1046800042F221039A4212D1804A0023C85C985416
:104690000133072BFAD17D4B1B68862B03D1794B55
:1046A0000F2283F8452000200146FFF71FFD784BBD
:1046B00044F839302AE0DFF8CC91D9F85080B8F1CD
:1046C000000F16D0B9F864A0BAF1400F34BF5546B8
:1046D000402540462946FFF709FDC5EB0A039BB27A
:1046E000A9F864300BB9402D01D108EB0503654AE8
:1046F0001365644BB3F84820B2F5A06F06D10022D1
:1047000083F8492093F84A20624B1A705E4B0122CD
:104710001A708AE004EBC90803F00803D8F80420F3
:10472000013DD9B2A2F10800EDB2002945D000F058
:104730004DF9544B03EB8500416921B34A6842614E
:1047400001F10802C8F804205A1992F82520032A1A
:1047500010D8DFE802F00205080B5D19032307E01B
:104760005D19022304E05D19052301E05D190423AE
:1047700085F8253018F0080F0A880CBF8823C82355
:1047800043EA02434FE05A1992F82520032A0BD836
:10479000DFE802F04B4B02055D19002301E05D19D3
:1047A000012385F8253040E018F0080F1D440CBFA8
:1047B0000222032285F8252037E054F839301B0CFB
:1047C00022F8083C4BB322F8061C42F8041C2D4A80
:1047D0004FEA850E02EB0E0194464A680AB948601A
:1047E00001E04A6D50600CEB0E02DFF898A05065B6
:1047F000294A32F815105B1822F8153000F0C8F875
:1048000018B10830C8F8040007E09AF8243044F8DA
:10481000390001338AF8243007E01D4B1F4A18F095
:10482000080F08BF134644F839300823337047E5B2
:10483000E9073DD5134C1448184D21460223037057
:1048400001F8682B164BA8341D6059601A619A61F3
:104850009D60DC60084B0D2119701249FF230B701D
:1048600001F8083C0A74104A1370104B9F221A700A
:104870000123037035E000BFC02007408005010020
:104880008292FF1F8C91FF1F942007406893FF1FA7
:10489000C8004000982007406093FF1F8800400038
:1048A0000080FF1F882007408C200740842007409D
:1048B0002B0605D50C4B0D221A70802203F8402CD4
:1048C00005F00203DBB22BB1084B1A781A700222F2
:1048D00003F8082C05F01005EDB215B1044B1022B9
:1048E0001A70BDE8FE8F00BFC02007408820074037
:1048F0008020074008B5FFF7C9FB00231E491A4670
:104900005A50C8180833882B4260F9D11B4B1A68DB
:1049100042F480221A601A4B80221A701978184AC1
:104920000906FBD4144B1749C3F307200870C3F3DF
:1049300007401B0E08750B76FF2301F81C3C01F89D
:10494000143C01F88C3C137843F0400313700021B1
:10495000012302F8783C02F80C1C02F8883C0A4B50
:1049600070226FF4507C1A7063444FF400721A6026
:10497000064B10221A7008BD0080FF1F34800440CF
:104980000C2107409C20074049E400E00821074033
:1049900072B60C4A1168B1FA81F30B2B02D962B6D8
:1049A000002070474FF0004020FA03F021EA000198
:1049B000116062B6044948225343C8180022CA5005
:1049C00042607047AC84FF1FA080FF1F0C4B482241
:1049D000C31AB3FBF2F30B2B11D80A4A127822B197
:1049E000094A12780AB1FFF7E5BB72B6074A4FF0E1
:1049F000004121FA03F311681943116062B6704750
:104A0000A080FF1FB091FF1FD091FF1FAC84FF1F3C
:104A100038B5114C23684BB10F4D28684288811876
:104A200001320C7A01888A4212D30CE00B4B1B78BE
:104A300013B94FF0FF340CE00320FFF775FB206043
:104A40000028E9D1F5E7FFF7C1FF00232B6000E064
:104A50004280204638BD00BF7492FF1FD091FF1FD7
:104A600010B50C4C23681BB10A4B1B686BB902E0F4
:104A7000094B1B7813B94FF0FF3010BD0320FFF72F
:104A800053FB20600028EFD1F5E75A889B18187A6D
:104A900010BD00BF7492FF1FD091FF1F044B988878
:104AA000044B1B681BB11A885B88D31AC018704767
:104AB0006093FF1F7492FF1F2DE9F0470E46814659
:104AC0004FF00008DFF868A0184F2AE09AF800308D
:104AD0004BB33B684BB90320FFF726FB386010B39C
:104AE000038813B9FFF772FFF5E73C6861882588F2
:104AF0006D1AAE4238BF3546083148462A4661181D
:104B000003F07EFE6388A944A844761BED18238831
:104B1000ADB2AB42658004D82046FFF757FF0023B3
:104B20003B60002ED2D14046BDE8F0877492FF1F53
:104B3000D091FF1F10B5094B1B786BB1084C206852
:104B400018B1FFF743FF002323600320FFF7ECFABF
:104B500010B1FFF73BFFF8E710BD00BFD091FF1F7A
:104B60007492FF1F2DE9F8432B4CDFF8B08001232E
:104B70000D462371064647E0A3681BBB4AF2F9279E
:104B80004FF0010998F8003013B9234A137112E06D
:104B90000420FFF7FBFA072806D884F80490FFF7F3
:104BA000F7FEA06070B92071013F01D0237B33B1C3
:104BB000194B01221A734FF0FF30BDE8F88300F063
:104BC00079F8DFE7A1684888C0F14002954238BF14
:104BD0002A4600F10807002380182373CF19488064
:104BE000AD1A02E0F05CF85401339342FAD1F618A2
:104BF0004B883F2B06D940230B800420FFF71CFB7A
:104C00000023A36005236373002DB5D1024B284612
:104C10001D71BDE8F88300BF7492FF1FD091FF1F84
:104C200007B502AB012103F8010D1846FFF79AFF03
:104C30000EBD70B50F4B1B78DBB10F4CA56801267C
:104C400026714DB16B880026667304202B8029469F
:104C5000FFF7F2FAA66009E0FFF79AFE014620B1DD
:104C600004206573FFF7E8FA00E06673024B002248
:104C70001A7170BDD091FF1F7492FF1F38B50C4C94
:104C800025799DB9A16831B14B8804200B80FFF7CD
:104C9000D3FAA56038BDFFF77BFE014620B10420A2
:104CA000BDE83840FFF7C8BA0123637338BD00BFC1
:104CB0007492FF1F7047FFFF0A4B4FF0FF321F290E
:104CC00028BF1F2110B59A60186019714FF48172C6
:104CD000002303E002FB0304637001338B42F9D12C
:104CE00010BD00BF8492FF1F30B572B6104B9A689A
:104CF0001879B2FA82F1814202D362B6002030BD47
:104D00004FF0004020FA01F022EA00029A601A7B7C
:104D10000132D2B21A7362B64FF4817041431C68FB
:104D2000012565546018597B914238BF5A7330BDD4
:104D30008492FF1F427872B60378012B02D9013B9F
:104D400003700AE0064B4FF0004121FA02F19A6825
:104D50000A439A601A7B013A1A7362B6704700BF21
:104D60008492FF1F30B5C3680EE0187A90420AD1D2
:104D700058685C7A006950F8245025B940F824102E
:104D8000087801300870DB68002BEED130BD437A23
:104D900099424FF0000305D2026952F8210042F80F
:104DA000213070471846704738B5437A994201D38D
:104DB000002418E0036953F82140002243F8212021
:104DC000002CF5D02378012B0DD9FFF78DFF054678
:104DD00028B10230A11C4FF4807203F011FD23783A
:104DE000013B23702C46204638BD10B54168427AFD
:104DF0004B7A9A420ED872B60268D36813B9D06063
:104E000004E02346DC68002CFBD1D8600123137238
:104E10000B7262B610BD074B9A7B4AB9064AFF2156
:104E20001170064A4FF0804101201160987370475D
:104E3000002070478492FF1F5EE400E008E100E07C
:104E4000034B4FF080421A60024B00229A73704766
:104E500088E100E08492FF1FF8B5164B164D1A68E2
:104E600042F080721A60154B1A6842F001021A6013
:104E7000134B2E681C690FE0237A63B121682F68F9
:104E80000B68204698472B68E288DB1B1B0993427E
:104E9000A38088BFE3806469002CEDD1064B1A68BB
:104EA000074B921BD98A12098A429A8288BFDA82FA
:104EB000F8BD00BFFCED00E0041000E0001000E0D1
:104EC0008492FF1F10B5084614461146FEF7C7FC32
:104ED000204610BD084608B5FEF774FC012008BD49
:104EE000FEF750BDFEF712BDFEF726BDFEF738BD3A
:104EF000FEF718BD0846FEF74DBCFEF725BC480876
:104F000000F1376000F5D830B0FBF1F0FEF7ACBB34
:104F1000480800F1376010B500F5D830B0FBF1F06B
:104F20001446FEF7A1FB2046BDE81040FEF7DEBBAD
:104F3000044B00221A711A73034A4FF47A71996074
:104F40001A6070479C92FF1FD005010010B50846FB
:104F500014461146FEF7A2FE204610BD084608B5CD
:104F6000FEF75CFE012008BDFEF7DEBEFEF7A1BE27
:104F7000FEF7B4BEFEF7C6BEFEF7A6BEFEF728BE1D
:104F8000480800F1376000F5D830B0FBF1F0FEF7CB
:104F9000B9BD480800F1376010B500F5D830B0FB56
:104FA000F1F01446FEF7AEFD2046BDE81040FEF7D6
:104FB000E1BDFFFF044B00221A711A73034A4FF43C
:104FC0007A7199601A607047AC92FF1F0806010061
:104FD00010B5084614461146FEF7C2FF204610BD24
:104FE000084608B5FEF77CFF012008BDFEF7FEBFAE
:104FF000FEF7C1BFFEF7D4BFFEF7E6BFFEF7C6BFA0
:10500000FEF748BF480800F1B76000F55840B0FB14
:10501000F1F0FEF7D9BE480800F1B76010B500F511
:105020005840B0FBF1F01446FEF7CEFE2046BDE836
:105030001040FEF701BFFFFF044B00221A711A73E4
:10504000034A4FF47A7199601A607047BC92FF1F4F
:105050004006010008B5034B01221A60024B1B6891
:10506000984708BD0C710340CC92FF1F08B5034B55
:1050700001221A60024B5B68984708BD1C7103400F
:10508000CC92FF1F08B5034B01221A60024B9B68AC
:10509000984708BD2C710340CC92FF1F08B5034B05
:1050A00001221A60024BDB68984708BD3C7103403F
:1050B000CC92FF1F054B1A6842F400021A60044BA1
:1050C00000221A60034B01221A7470473C8004408E
:1050D00000700340CC92FF1F054B01221A60054B64
:1050E0001A6822F400021A60034B00221A747047F7
:1050F000007003403C800440CC92FF1FF0B5447820
:10510000104D114F23015A194260104A9E188660B3
:1051100004F144060673066947F8246000249C5095
:10512000595103219950037B5A11920002F16042B8
:1051300002F5614203F01F03012101FA03F313603A
:10514000F0BD00BF00710340CC92FF1F0871034007
:10515000F8B50D4B1B7C06460F460BB9FFF7AAFFAF
:105160000024094D05F11102A25C42B97470304669
:1051700039462C19FFF7C2FF01206074F8BD0134D5
:10518000042CEED10020F8BDCC92FF1F037B01223E
:10519000591103F01F0302FA03F3094A42F82130C0
:1051A0008268002313604178064A511811324B740B
:1051B000995C21B90133042BFAD1FFF78DBF7047F9
:1051C00080E100E0CC92FF1F037810B504460BB1DC
:1051D000FFF7DCFF0023237010BD037870B5044691
:1051E0000D4616461BB1FFF7D1FF00232370256142
:1051F00020463146FFF7ACFF10B10123237000E0D9
:105200002070207870BD00BFF8B506460C468F1898
:10521000002506E0336814F8011B1B6830469847E8
:105220002D18BC42F6D12846F8BD2DE9F0410025E5
:105230008AB0074688468C682E4611E02B464046C9
:1052400001A9212200F061FC3B68202C34BF2246DA
:1052500020225B68384601A9AD18A41A9847361871
:10526000002CEBD130460AB0BDE8F08107B5054B04
:105270001B88ADF80430036801A95B6802229847D7
:105280000EBD00BF7006010008B503685B68984753
:10529000002008BD0EB403B503AA52F8041B019206
:1052A00006F0BAFEBDE80C4003B070470EB403B57B
:1052B00003AA52F8041B019206F0AEFEBDE80C40B2
:1052C00003B07047F0B505468BB022B90368C9B288
:1052D0001B6898472CE0012A08BF0A2221B9302216
:1052E0008DF82520212413E02124B1FBF2F002FBEC
:1052F0001011C9B2092901D8303100E037310AAFA5
:105300003E1906F8241C014610B1013CE4B2ECE75A
:1053100033B1013C0AAAE4B213192D2203F8242C5C
:105320002B6801AF5B6828463919C4F122029847FF
:105330000BB0F0BD002902DA49422D2300E0002322
:105340000A22FFF7BFBF2DE9F347074691469A4669
:1053500010461946002200239DF8284002F0F0FD77
:1053600020B10AF1004A4FF0010800E08046002613
:105370000022314B0AE0104619462DA3D3E9002341
:1053800002F06CFB013602460B46F6B2A642F2D1A1
:105390004846514602F0B0F90D46044602F020FEA0
:1053A00081464346384649460A22FFF78BFF80462E
:1053B000002E37D0484602F0DBFA072E28BF07261A
:1053C0000B4602462946204602F094F901362E2368
:1053D0008DF80030F6B24FF001091BE00022174BA8
:1053E00002F03CFB0D46044602F0FAFD02AA02EB75
:1053F0000903C0B200F1300203F8082C02F0C8FA29
:1054000009F1010902460B46204629465FFA89F94F
:1054100002F070F9B145E1D13B6838465B686946F6
:105420004A4698474046BDE8FC8700BFAFF300807E
:105430009A9999999999B93F0000E03F000024405A
:1054400010B50446FFF7C0FE204610BD03480449CE
:10545000044A002300F8083F02F0A8BEE492FF1FB0
:10546000415400000084FF1F08B1014B18607047D1
:105470000493FF1F014B1860704700BF0493FF1F88
:105480000C4B0D4A1B680D48002B08BF134693FBBD
:10549000F0F200FB12330A48424344F2A71000FB2B
:1054A00003200028B8BF00F10040024BB8BF01380C
:1054B000186070470493FF1F24D95B071DF3010098
:1054C000ECF4FFFF10B5044630B1FFF7D9FFB0FB95
:1054D000F4F303FB140010BD10BD884210B5044660
:1054E00003DA081AFFF7EEFF0419204610BD10B5C5
:1054F000029C401AE41A4443521A94FBF2F0C0187A
:1055000010BD704741EA0020704700BF10B5044647
:10551000006802F0A1FE204610BD38B504460D46D5
:105520000068013103F0F6FA10B184E8210001208F
:1055300038BD43688B4210B5044600D306E0FFF740
:10554000ECFF20B1A3680BB922681370012010BDD5
:10555000F8B504460F46154622B9036803B11A7020
:1055600000230BE01146FFF7E4FF064640B9206830
:1055700010B102F071FE266000236360A36004E0B6
:10558000A5602068394603F081FE2046F8BD00235F
:1055900010B50446036043608360037300F06CFC45
:1055A000204610BD38B50023044603604360836085
:1055B00003730D4639B10846FDF79CFB29460246A8
:1055C0002046FFF7C5FF204638BD38B505460068C0
:1055D0000C4660B16A688B689A4206D3096803F08A
:1055E00055FEA368AB6000230AE002F035FE236895
:1055F0002B6063686B60A368AB600023236063600B
:10560000A36038BD002310B5044603604360836087
:105610000373FFF7DAFF204610BD002310B50446E0
:105620000360436083600373FFF7CFFF204610BD24
:1056300081420B4603D009689A68FFF789BF70471B
:10564000002310B504460360436083600373FFF7D3
:10565000EFFF204610BD884210B5044601D0FFF789
:10566000B4FF204610BD884210B5044601D0FFF7B4
:10567000ACFF204610BD38B505460C4641B1084682
:10568000FDF738FB214602462846FFF761FF00E0A0
:10569000A960284638BD10B500238AB004460360CF
:1056A0004360836003736B460846911CFDF758FB0B
:1056B00001462046FFF7DFFF20460AB010BD10B5B7
:1056C00000238AB004460360436083600373084686
:1056D00001A9FDF717FB204601A9FFF7CCFF2046E3
:1056E0000AB010BD10B500238AB0044603604360C1
:1056F00083600373084601A9FDF722FB204601A938
:10570000FFF7B9FF20460AB010BD10B5002386B0E0
:1057100004460360436083600373084601A9FDF7F4
:10572000F1FA204601A9FFF7A6FF204606B010BDFA
:1057300010B5002386B004460360436083600373A2
:10574000084601A9FDF7FCFA204601A9FFF793FFDF
:10575000204606B010BD13B5002304460360436025
:10576000836003730A22084601A9FDF7CBFA20469D
:1057700001A9FFF780FF20461CBD10B5044600F0CC
:105780007BFB204610BD07B500238DF804100122D5
:1057900001A98DF80530FFF7DBFE0EBD002310B523
:1057A00004460360436083600373FFF7ECFF204609
:1057B00010BD70B504460E4685685AB15519294684
:1057C000FFF7B7FE30B12068A3683146C01803F078
:1057D0005DFDA560204670BD0B4609689A68FFF71D
:1057E000E8BF38B505460C4639B10846FDF782FAE0
:1057F000214602462846FFF7DCFF284638BD13B590
:10580000002304468DF80410012201A98DF805300B
:10581000FFF7CFFF20461CBD1FB504460A220846ED
:1058200001A9FDF78DFA01A8FDF764FA01A9024666
:105830002046FFF7BEFF204604B010BD1FB504464A
:105840000A22084601A9FDF75DFA01A8FDF752FA00
:1058500001A902462046FFF7ACFF204604B010BD68
:105860001FB504460A22084601A9FDF769FA01A8F6
:10587000FDF740FA01A902462046FFF79AFF2046AD
:1058800004B010BD1FB504460A22084601A9FDF761
:1058900039FA01A8FDF72EFA01A902462046FFF7C2
:1058A00088FF204604B010BD10B588B0044602221F
:1058B0006B4608460421FDF753FA6846FDF71AFACD
:1058C000694602462046FFF774FF204608B010BD27
:1058D0000B4610B509689A680446FFF76AFF204630
:1058E00010BD38B505460C4639B10846FDF702FA39
:1058F000214602462846FFF75CFF284638BD38B5EA
:10590000044608460D46FDF7F5F9294602462046AD
:10591000FFF74FFF204638BD10B50446FFF76FFF75
:10592000204610BD10B50446FFF776FF204610BD97
:1059300010B50446FFF794FF204610BD10B504468D
:10594000FFF7A0FF204610BD10B50446FFF788FF03
:10595000204610BD10B50446FFF794FF204610BD49
:1059600010B50446FFF7A0FF204610BD10B519463C
:105970000446104602F054FB01462046FFF794FF10
:10598000204610BD03680A680BB15AB905E022B180
:10599000896811B11078404270473BB1806830B1DE
:1059A000187870471846114603F082BB18467047B6
:1059B00008B582688B689A4206D1FFF7E3FFD0F101
:1059C000010038BF002008BD002008BD826808B56E
:1059D0000B461AB901B103E0012008BD11B90368F3
:1059E000187802E0006803F063FBD0F1010038BFD3
:1059F000002008BD08B5FFF7C5FFC00F08BD08B5FA
:105A0000FFF7C0FF0028D4BF0020012008BD08B563
:105A1000FFF7B8FF0028CCBF0020012008BD08B563
:105A2000FFF7B0FFC043C00F08BD8842F8B514D0DF
:105A300083688A68934212D17BB106680D6800249E
:105A400008E006F09DFA0746285D06F099FA013451
:105A5000874204D1305D0028F3D10120F8BD002039
:105A6000F8BD10B58B688468E41AA2420CD80068AF
:105A700068B1096851B180181A4603F065FCD0F18D
:105A8000010038BF002010BD002010BD084610BD29
:105A900082688B689A4202D30022FFF7E2BF00209F
:105AA000704708B582688B689A420CD3006868B169
:105AB000096851B1D31AC01803F0FAFAD0F1010005
:105AC00038BF002008BD002008BD084608BD836817
:105AD00099423CBF03685A5470478368994201D287
